:100000000C942A000C9447000C9447000C94470071
:100010000C9447000C9447000C9447000C94470044
:100020000C9447000C9447000C9447000C94470034
:100030000C9447000C9447000C9447000C94470024
:100040000C9447000C9447000C9447000C94470014
:100050000C94470011241FBECFE5D4E0DEBFCDBF16
:1000600010E0A0E6B0E0E0E0F5E002C005900D92FF
:10007000A036B107D9F710E0A0E6B0E001C01D92AC
:10008000A036B107E1F70E9449000C947E020C945F
:1000900000000F931F93CF93DF93CDB7DEB76C971C
:1000A0000FB6F894DEBF0FBECDBF84E390E024E32B
:1000B00030E0F90120812160FC01208385E390E09C
:1000C00025E330E0F90120812160FC01208380E0FC
:1000D00090E0AAE7B4E489839A83AB83BC83698107
:1000E0007A818B819C8120E030E04AE753E40E94D2
:1000F000F301DC01CB018D839E83AF83B88711E0D0
:100100006D817E818F81988520E030E040E85FE35B
:100110000E94720188230CF010E0112329F081E085
:1001200090E09A87898746C011E06D817E818F813A
:10013000988520E03FEF4FE757E40E94EF01181643
:100140000CF010E0112361F169817A818B819C812F
:1001500020E030E040E251E40E94F301DC01CB01F9
:10016000BC01CD010E947601DC01CB019A87898711
:1001700012C089E190E09C878B878B859C858C01E0
:10018000C8010197F1F78C011C870B8789859A8537
:1001900001979A87898789859A85009751F717C0B3
:1001A0006D817E818F8198850E947601DC01CB0173
:1001B0009A87898789859A859E878D878D859E8573
:1001C0008C01F8013197F1F78F011E870D8785E3C8
:1001D00090E025E330E0F90120812E7FFC012083AF
:1001E00080E090E0AAE7B4E48F87988BA98BBA8B64
:1001F0006F85788989899A8920E030E04AE753E45D
:100200000E94F301DC01CB018B8B9C8BAD8BBE8BF1
:1002100011E06B897C898D899E8920E030E040E87F
:100220005FE30E94720188230CF010E0112329F093
:1002300081E090E0988F8F8B46C011E06B897C89BC
:100240008D899E8920E03FEF4FE757E40E94EF0140
:1002500018160CF010E0112361F16F8578898989F7
:100260009A8920E030E040E251E40E94F301DC0191
:10027000CB01BC01CD010E947601DC01CB01988F3E
:100280008F8B12C089E190E09A8F898F898D9A8D2A
:100290008C01C8010197F1F78C011A8F098F8F89A2
:1002A000988D0197988F8F8B8F89988D009751F734
:1002B00018C06B897C898D899E890E947601DC013A
:1002C000CB01988F8F8B8F89988D9C8F8B8F8B8D87
:1002D0009C8D8C01F8013197F1F78F011C8F0B8FEA
:1002E000EDCEECCE2FD008F481E0089557D088F001
:1002F0009F5790F0B92F9927B751A0F0D1F0660F12
:10030000771F881F991F1AF0BA95C9F712C0B1302C
:1003100081F05ED0B1E008955BC0672F782F882709
:10032000B85F39F0B93FCCF3869577956795B3956B
:10033000D9F73EF490958095709561957F4F8F4FDA
:100340009F4F0895990F0008550FAA0BE0E8FEEFA4
:1003500016161706E807F907C0F012161306E40789
:10036000F50798F0621B730B840B950B39F40A2682
:1003700061F0232B242B252B21F408950A2609F460
:10038000A140A6958FEF811D811D089557FD9058BE
:10039000440F551F59F05F3F71F04795880F97FB49
:1003A000991F61F09F3F79F0879508951216130603
:1003B0001406551FF2CF4695F1DF08C01616170632
:1003C0001806991FF1CF8695710561050894089567
:1003D000E894BB2766277727CB0197F90895B2DF0A
:1003E00008F48FEF08950BD078C069D028F06ED054
:1003F00018F0952309F05AC05FC01124EACFC6DF78
:10040000A0F3959FD1F3950F50E0551F629FF00127
:10041000729FBB27F00DB11D639FAA27F00DB11D80
:10042000AA1F649F6627B00DA11D661F829F222709
:10043000B00DA11D621F739FB00DA11D621F839F90
:10044000A00D611D221F749F3327A00D611D231F66
:10045000849F600D211D822F762F6A2F11249F57B4
:1004600050408AF0E1F088234AF0EE0FFF1FBB1FD7
:10047000661F771F881F91505040A9F79E3F510576
:1004800070F014C0A6CF5F3FECF3983EDCF3869586
:1004900077956795B795F795E7959F5FC1F7FE2B21
:1004A000880F911D9695879597F9089597F99F67FD
:1004B00080E870E060E008959FEF80EC08950024EC
:1004C0000A941616170618060906089500240A94B9
:1004D00012161306140605060895092E0394000C3F
:1004E00011F4882352F0BB0F40F4BF2B11F460FFCE
:1004F00004C06F5F7F4F8F4F9F4F0895F894FFCFD9
:00000001FF
