:100000000C942A000C943F000C943F000C943F0089
:100010000C943F000C943F000C943F000C943F0064
:100020000C943F000C943F000C943F000C943F0054
:100030000C943F000C943F000C943F000C943F0044
:100040000C943F000C943F000C943F000C943F0034
:100050000C943F0011241FBECFE5D8E0DEBFCDBF1A
:1000600010E0A0E6B0E0E0EEF0E002C005900D92F6
:10007000AA36B107D9F70E9441000C946E000C9487
:100080000000DF93CF93CDB7DEB72A970FB6F89471
:10009000DEBF0FBECDBFDE011196E0E6F0E08AE0E4
:1000A00001900D928150E1F78FEF87BB20E0BE01F8
:1000B0006F5F7F4F48EC50E0FB01E20FF11D808144
:1000C000809588BB80E29EE4FA013197F1F70197B1
:1000D000D9F72F5F2A3080F320E0EECFF894FFCFDE
:0A00E000C0F9A4B0999282F8809054
:00000001FF
