:100000000C942A000C9447000C9447000C94470071
:100010000C9447000C9447000C9447000C94470044
:100020000C9447000C9447000C9447000C94470034
:100030000C9447000C9447000C9447000C94470024
:100040000C9447000C9447000C9447000C94470014
:100050000C94470011241FBECFE5D4E0DEBFCDBF16
:1000600010E0A0E6B0E0E0E3F1E002C005900D9200
:10007000A036B107D9F710E0A0E6B0E001C01D92AC
:10008000A036B107E1F70E9449000C9496000C9449
:10009000000087B3807F87BB84B38F6084BB86B347
:1000A0008F708530C1F1863028F4823041F0843081
:1000B000B1F710C08630C9F0883089F721C0A89AFE
:1000C000A998AA9AAB9887EA91E60197F1F700C040
:1000D0000000E5CFA89AA998AA9AAB9A87EA91E678
:1000E0000197F1F700C00000DACFA89AA99AAA9A5E
:1000F000AB9887EA91E60197F1F700C00000CFCFF7
:10010000A898A99AAA98AB9A87EA91E60197F1F77D
:1001100000C00000C4CFA89AA99AAA9AAB9A87EA0D
:1001200091E60197F1F700C00000B9CFF894FFCF36
:00000001FF
