:030000000208975C
:0C089700787FE4F6D8FD758107020800A8
:10080000C2A020901AD2A07F191208837F0A120872
:100810006AC2A07F4B1208837F0A12086A80E32015
:10082000911AD2A07F321208837F0A12086AC2A0EE
:100830007F321208837F0A12086A80E320921AD25C
:10084000A07F4B1208837F0A12086AC2A07F191288
:1008500008837F0A12086A80E32093A6D2A07F64EF
:0A0860001208837F0A12086A80EF75
:10088300D28EE4FEEEC39F5008308FFDC28F0E80E0
:03089300F3C28E1F
:01089600223F
:10086A00E4FEEEC39F5011E4FDFC0DBD00010CBC7B
:08087A0004F8BDFBF50E80EA55
:010882002253
:00000001FF
