:1008B9006D79206E616D652069732073616B736852
:0208C9006900C4
:10084E007F0112086C7F0212086C7F0E12086C7FFB
:0E085E000612086C7F2812086C7F8002086C5E
:02086C008F08F3
:10086E00E50854F0FF7E001208E8E50875F010A4C4
:08087E007E0054F0FF0208E8BF
:10082B008B088A09890AAB08AA09A90A1208A0FF32
:10083B0060101208867401250AF50AE43509F509DA
:03084B0080E42224
:020886008F0BD6
:10088800E50B54F0FF7E001208F2E50B75F010A49A
:080898007E0054F0FF0208F29B
:0A08E8008FA0C2B0120800C2B222B5
:0A08F2008FA0D2B0120800C2B2229B
:06080000C2B1D2B27F0577
:10080600E4FDFCEFFBC3ED9B7480F86C985015E497
:10081600FBFA0BBB00010ABA75F8BB30F50DBD003B
:04082600010C80DF62
:01082A0022AB
:1008CB00E4F5A012084E7BFF7A0879B912082B8049
:0108DB00F527
:030000000208DC17
:0C08DC00787FE4F6D8FD75810B0208CB94
:1008A000BB010689828A83E0225002E722BBFE0256
:0908B000E32289828A83E4932289
:00000001FF
