:100000000C942A000C943F000C943F000C943F0089
:100010000C943F000C943F000C943F000C943F0064
:100020000C943F000C943F000C943F000C943F0054
:100030000C943F000C943F000C943F000C943F0044
:100040000C943F000C943F000C943F000C943F0034
:100050000C943F0011241FBECFE5D4E0DEBFCDBF1E
:1000600011E0A0E6B0E0E0EFF1E102C005900D92F2
:10007000A836B107D9F70E9441000C94F6080C94F9
:100080000000DF93CF9300D000D0CDB7DEB781E37F
:1000900090E020E4FC0120831A82198216C01C82A1
:1000A0001B8209C089819A810E9473008B819C8187
:1000B00001969C838B838B819C818233910590F385
:1000C00089819A8144969A83898389819A81843B24
:1000D000910528F380E090E00F900F900F900F9023
:1000E000CF91DF9108950F931F93DF93CF93CDB7F7
:1000F000DEB7A8970FB6F894DEBF0FBECDBF98A7A6
:100100008FA38FA198A5880F991F9C01220F331FE1
:10011000220F331F820F931FC29698A78FA382E3EB
:1001200090E020E4FC0120838FA198A5CC01A0E001
:10013000B0E0BC01CD010E945D06DC01CB018983EA
:100140009A83AB83BC8369817A818B819C812BEA02
:100150003AEA4AEA5EE30E94D303DC01CB018D83D5
:100160009E83AF83B88711E06D817E818F819885F2
:1001700020E030E040E85FE30E94DB0588230CF0DC
:1001800010E0112319F081E08987A3C011E06D818F
:100190007E818F81988520E030E04FE753E40E9414
:1001A0007B0518160CF010E0112309F489C0698151
:1001B0007A818B819C8120E030E04AE754E40E9400
:1001C000CD04DC01CB018A879B87AC87BD876A851C
:1001D0007B858C859D8520E030E04AE753E40E94D2
:1001E000D303DC01CB018E879F87A88BB98B11E0ED
:1001F0006E857F858889998920E030E040E85FE35B
:100200000E94DB0588230CF010E0112329F081E027
:1002100090E09B8B8A8B46C011E06E857F85888934
:10022000998920E03FEF4FE757E40E947B051816BD
:100230000CF010E0112361F16A857B858C859D852A
:1002400020E030E040E251E40E94D303DC01CB0126
:10025000BC01CD010E94FF01DC01CB019B8B8A8B8D
:1002600012C089E190E09D8B8C8B8C899D898C01DB
:10027000C8010197F1F78C011D8B0C8B8A899B8932
:1002800001979B8B8A8B8A899B89009751F728C09D
:100290006E857F85888999890E94FF01DC01CB01E9
:1002A0009B8B8A8B8A899B899F8B8E8B8E899F895A
:1002B0008C01F8013197F1F78F011F8B0E8B10C065
:1002C0006D817E818F8198850E94FF01DC01CB01C9
:1002D00089878985888F888D182F1A95F1F7188F4F
:1002E00082E390E0FC01108280E090E0A0E9B1E4BC
:1002F000898F9A8FAB8FBC8F698D7A8D8B8D9C8DFA
:1003000020E030E04AE753E40E94D303DC01CB0154
:100310008D8F9E8FAF8FB8A311E06D8D7E8D8F8DE9
:1003200098A120E030E040E85FE30E94DB058823ED
:100330000CF010E0112329F081E090E09AA389A34A
:1003400046C011E06D8D7E8D8F8D98A120E03FEF2E
:100350004FE757E40E947B0518160CF010E01123BC
:1003600061F1698D7A8D8B8D9C8D20E030E040E2CB
:1003700051E40E94D303DC01CB01BC01CD010E94FA
:10038000FF01DC01CB019AA389A312C089E190E0AF
:100390009CA38BA38BA19CA18C01C8010197F1F7B1
:1003A0008C011CA30BA389A19AA101979AA389A3ED
:1003B00089A19AA1009751F717C06D8D7E8D8F8D01
:1003C00098A10E94FF01DC01CB019AA389A389A116
:1003D0009AA19EA38DA38DA19EA18C01F8013197B6
:1003E000F1F78F011EA30DA3A8960FB6F894DEBFF8
:1003F0000FBECDBFCF91DF911F910F910895EF9266
:10040000FF920F931F937B018C0120E030E040E0CE
:100410005FE40E94AB0587FD11C0C801B70120E071
:1004200030E040E05FE40E94A2030E940B069B01C3
:10043000AC01205030404040504806C0C801B701D0
:100440000E940B069B01AC01B901CA011F910F91DB
:10045000FF90EF900895A0E0B0E0E1E3F2E00C94AB
:10046000C308FC01EA018081823008F438C1DB0155
:100470009C91923008F430C1843059F4943009F0E2
:100480002EC1918111968C911197981709F021C175
:1004900026C1943009F420C19230B1F4823009F0C1
:1004A0001EC1CA01AF0128E0DA010D90AD01DC01E7
:1004B0000D92CD012150C1F7DB0111968C9111975E
:1004C0009181892389830AC1823009F405C1C280E0
:1004D000D380DB0112966D907C9013972481358137
:1004E000468157811496ED90FD900D911C911797C0
:1004F000C601861997095C0197FF04C0AA24BB2492
:10050000A81AB90AB0E2AB16B1040CF061C0181613
:1005100019066CF5370148010A2C04C0969487949B
:10052000779467940A94D2F781E090E0A0E0B0E07D
:100530000A2C04C0880F991FAA1FBB1F0A94D2F768
:100540000197A109B1098E219F21A023B123EE2497
:10055000FF248701E3940097A105B10519F4EE2467
:10056000FF248701E628F728082919293CC00097AD
:10057000D1F1CA0CDB1C39014A010A2C04C0969443
:100580008794779467940A94D2F781E090E0A0E092
:10059000B0E00A2C04C0880F991FAA1FBB1F0A9441
:1005A000D2F70197A109B10982239323A423B5238C
:1005B00021E030E040E050E00097A105B10519F4DA
:1005C00020E030E0A90126293729482959290BC004
:1005D0006C147D0424F4EE24FF24870104C063011D
:1005E00020E030E0A9018181FB019181891709F4A4
:1005F00045C0882349F0D801C701821B930BA40B87
:10060000B50B9C01AD0104C02E193F09400B510BE5
:1006100057FD04C01982DB82CA820BC081E0898346
:10062000DB82CA8250954095309521953F4F4F4FC0
:100630005F4F2C833D834E835F830DC0880F991FCE
:10064000AA1FBB1F8C839D83AE83BF838A819B813E
:1006500001979B838A838C819D81AE81BF819C01A0
:10066000AD0121503040404050402F3FEFEF3E075A
:10067000EFEF4E07EFE35E0708F30BC08983DB82E1
:10068000CA822E0D3F1D401F511F2C833D834E8378
:100690005F8383E088832C813D814E815F8157FF9A
:1006A0001DC0DA01C90181709070A070B0705695BC
:1006B000479537952795822B932BA42BB52B8C83AD
:1006C0009D83AE83BF838A819B8101969B838A83AE
:1006D00005C0E0E6F0E003C0FB0101C0FE01CF0170
:1006E000CDB7DEB7EEE00C94DF08A0E2B0E0EBE7B8
:1006F000F3E00C94CB0869837A838B839C832D83EE
:100700003E834F83588789E0E82EF12CEC0EFD1EC6
:10071000CE010196B7010E94FD078E010F5E1F4FAB
:10072000CE010596B8010E94FD07C701B801AE01D0
:10073000475E5F4F0E942B020E942F07A096E6E0C3
:100740000C94E708A0E2B0E0E8EAF3E00C94CB08F0
:1007500069837A838B839C832D833E834F83588761
:100760008E01075F1F4FCE010196B8010E94FD0761
:1007700091E1E92EF12CEC0EFD1ECE010596B7019C
:100780000E94FD078A8991E089278A8BC801B701F9
:10079000AE01475E5F4F0E942B020E942F07A0967A
:1007A000E6E00C94E708A0E2B0E0E9EDF3E00C9499
:1007B000BF0869837A838B839C832D833E834F8319
:1007C0005887CE010196BE01675F7F4F0E94FD07EB
:1007D000CE010596BE016F5E7F4F0E94FD07998591
:1007E000923078F089898230C0F0943019F48230E8
:1007F00041F4CBC0843019F4923079F4C6C0923001
:1008000051F481E02A859A89291709F480E08A87C2
:10081000CE010996BCC0823051F481E02A859A89C4
:10082000291709F480E08A8BCE014196B0C06D840F
:100830007E848F849888ED88FE880F89188DE0E289
:10084000F0E080E090E0DC01AA24BB24650120E018
:1008500030E0A901B3016170707061157105D1F0CC
:100860002E0D3F1D401F511F15012601280E391E58
:100870004A1E5B1E81E090E0A0E0B0E02E153F052F
:100880004007510718F080E090E0DC01820D931DD5
:10089000A41DB51DAA0CBB1CCC1CDD1C17FF09C078
:1008A00061E0262E312C412C512CA228B328C428DB
:1008B000D528319749F0EE0CFF1C001F111F9694AC
:1008C000879477946794C6CF6B897C89EB85FC8588
:1008D0006E0F7F1F6E5F7F4F7C8F6B8F61E0EA85AD
:1008E0007A89E71709F460E06A8F6B8D7C8D10C000
:1008F000FC01E170F070309729F0569547953795D7
:1009000027955068B695A795979587956F5F7F4F08
:10091000B7FDEECF0CC0880F991FAA1FBB1F57FD54
:100920008160220F331F441F551F6150704080307B
:10093000E0E09E07E0E0AE07E0E4BE0760F36B8F07
:100940007C8F6FE7E62EF12C012D112DE822F92284
:100950000A231B2360E4E616F1040105110561F486
:1009600087FD0AC0211531054105510529F0805C3C
:100970009F4FAF4FBF4F80788D8F9E8FAF8FB8A3A3
:1009800083E0898FCE01499602C080E690E00E9404
:100990002F07A096E2E10C94DB08A8E1B0E0E3EDBC
:1009A000F4E00C94C70869837A838B839C832D833E
:1009B0003E834F8358878E01075F1F4FCE010196FC
:1009C000B8010E94FD0781E1E82EF12CEC0EFD1E1E
:1009D000CE010596B7010E94FD079985923008F473
:1009E00083C08989823008F47BC02A853A8923270D
:1009F0002A87943011F0923021F4981709F06CC0D6
:100A000071C0843039F41D861E861F86188A1C86A4
:100A10001B866AC0823019F484E0898765C08B85A3
:100A20009C852B893C89821B930B9C878B872D850A
:100A30003E854F855889ED88FE880F89188D2E15C3
:100A40003F054007510738F4220F331F441F551F3D
:100A500001979C878B876FE170E0A12CB12CC12C92
:100A6000A0E4DA2E80E090E0DC012E153F0540077F
:100A7000510740F08A299B29AC29BD292E193F092D
:100A8000400B510BD694C794B794A794220F331FF1
:100A9000441F551F6150704041F76FE7E62EF12C5F
:100AA000012D112DE822F9220A231B2360E4E6160A
:100AB000F1040105110561F487FD0AC02115310516
:100AC0004105510529F0805C9F4FAF4FBF4F8078A3
:100AD0008D879E87AF87B88B8E01075F1F4F04C03D
:100AE000870102C000E610E0C8010E942F07689647
:100AF000EAE00C94E308A8E1B0E0E1E8F5E00C944A
:100B0000CB0869837A838B839C832D833E834F83B9
:100B100058878E01075F1F4FCE010196B8010E94D2
:100B2000FD0781E1E82EF12CEC0EFD1ECE010596AD
:100B3000B7010E94FD078985823040F089898230A3
:100B400028F0C801B7010E94660801C08FEF6896BF
:100B5000E6E00C94E708A8E1B0E0E1EBF5E00C94E6
:100B6000CB0869837A838B839C832D833E834F8359
:100B700058878E01075F1F4FCE010196B8010E9472
:100B8000FD0781E1E82EF12CEC0EFD1ECE0105964D
:100B9000B7010E94FD078985823040F08989823043
:100BA00028F0C801B7010E94660801C08FEF68965F
:100BB000E6E00C94E708A8E1B0E0E1EEF5E00C9483
:100BC000CB0869837A838B839C832D833E834F83F9
:100BD00058878E01075F1F4FCE010196B8010E9412
:100BE000FD0781E1E82EF12CEC0EFD1ECE010596ED
:100BF000B7010E94FD078985823040F089898230E3
:100C000028F0C801B7010E94660801C081E068961B
:100C1000E6E00C94E708ACE0B0E0E1E1F6E00C942B
:100C2000CF0869837A838B839C83CE010196BE01B2
:100C30006B5F7F4F0E94FD078D81823081F1823092
:100C400070F1843021F48E81882369F10AC02F81EC
:100C5000388537FD24C06E812F3131053CF0662385
:100C600011F120E030E040E050E821C08EE190E05A
:100C7000821B930B29853A854B855C8504C056956C
:100C80004795379527958A95D2F7662381F0509539
:100C90004095309521953F4F4F4F5F4F08C020E062
:100CA00030E0A90104C02FEF3FEF4FEF5FE7B9013C
:100CB000CA012C96E2E00C94EB08A8E0B0E0E3E671
:100CC000F6E00C94C9087B018C011A82611571054C
:100CD0008105910519F482E089835FC083E08983EF
:100CE0008EE1C82ED12CDC82CB82ED82FE820F8376
:100CF0001887C801B7010E94D506FC013197F7FF9C
:100D00003AC0AA27BB27AE1BBF0B21E030E040E072
:100D100050E00A2E04C0220F331F441F551F0A94AF
:100D2000D2F721503040404050402E213F214023F7
:100D3000512361E070E080E090E02115310541052C
:100D4000510519F460E070E0CB0104C016950795D9
:100D5000F794E794AA95D2F7E62AF72A082B192BDD
:100D6000ED82FE820F8318878EE190E08E1B9F0B31
:100D70009C838B8312C0309781F00E2E04C0EE0C42
:100D8000FF1C001F111F0A94D2F7ED82FE820F8311
:100D90001887CE1ADF0ADC82CB82CE0101960E9430
:100DA0002F072896E8E00C94E508AF92BF92CF9207
:100DB000DF92EF92FF920F931F937B018C0180E0F3
:100DC000E81680E0F80681E0080780E0180758F48C
:100DD000EFEFEE16F1040105110509F090F480E043
:100DE00090E0DC0117C0F0E0EF16F0E0FF06F0E065
:100DF0000F07F1E01F0750F480E190E0A0E0B0E0C1
:100E000009C088E090E0A0E0B0E004C088E190E094
:100E1000A0E0B0E020E230E040E050E0281B390BD9
:100E20004A0B5B0B5701680104C0D694C794B79472
:100E3000A7948A95D2F7D601C50188599F4FFC0126
:100E40008081281B310941095109C9011F910F9166
:100E5000FF90EF90DF90CF90BF90AF900895EF920A
:100E6000FF920F931F93CF93DF93FC012481358171
:100E70004681578161818081823020F44061EFEFAB
:100E8000F0E0A3C0843009F49BC0823009F492C022
:100E9000211531054105510509F48FC00280F38108
:100EA000E02D8FEFE238F8070CF05AC0C2E8DFEF10
:100EB000CE1BDF0BCA31D1056CF579018A010C2EEE
:100EC00004C016950795F794E7940A94D2F781E049
:100ED00090E0A0E0B0E00C2E04C0880F991FAA1F7C
:100EE000BB1F0A94D2F70197A109B109822393236A
:100EF000A423B52321E030E040E050E00097A105B5
:100F0000B10519F420E030E0A9012E293F29402B3A
:100F1000512B03C020E030E0A901DA01C9018F772D
:100F20009070A070B07080349105A105B10539F4BE
:100F300027FF09C0205C3F4F4F4F5F4F04C0215C2B
:100F40003F4F4F4F5F4FE1E0F0E0203080E0380747
:100F500080E0480780E4580728F5E0E0F0E022C090
:100F6000E038F1056CF5E158FF4FDA01C9018F77E0
:100F70009070A070B07080349105A105B10539F46E
:100F800027FF09C0205C3F4F4F4F5F4F04C0215CDB
:100F90003F4F4F4F5F4F57FF05C0569547953795C9
:100FA0002795319687E056954795379527958A95E9
:100FB000D1F70BC0E0E0F0E005C0E0E0F0E005C0F4
:100FC000EFEFF0E020E030E0A9018E2F8795882731
:100FD0008795942F9F77679566276795E695E22E0C
:100FE000A92FA82BFE2FF62B622F732F8A2F9F2F4E
:100FF000CDB7DEB7E6E00C94E708DC01FB012C91ED
:1010000011963C91119712968C911297482F4F7719
:1010100050E0982F991F9927991F13966C91139759
:10102000862F880F892B90E0661F6627661F6183D5
:10103000009739F5211531054105510511F482E07C
:1010400029C082E89FEF9383828367E0220F331FDA
:10105000441F551F6A95D1F783E0808309C0220F92
:10106000331F441F551F828193810197938382838D
:10107000203080E0380780E0480780E4580778F3A4
:1010800020C08F3F910579F42115310541055105A7
:1010900019F484E08083089544FF03C081E08083D5
:1010A00010C010820EC08F5790409383828383E0DC
:1010B000808387E0220F331F441F551F8A95D1F785
:1010C000506424833583468357830895FC01DB01F4
:1010D0009081923008F449C08C91823008F445C068
:1010E000943051F461818430B1F511962C911197AF
:1010F00030E0261B310941C0843021F0923041F4A8
:101100008230B1F111968C9111978823A1F12DC0F5
:101110006181823001F111968C9111976817D9F491
:101120002281338112968D919C9113978217930798
:1011300094F028173907BCF0248135814681578106
:1011400014968D919D910D90BC91A02D82179307BF
:10115000A407B50718F4662341F00DC02817390716
:101160004A075B0728F4662331F021E030E005C030
:1011700020E030E002C02FEF3FEFC90108952F9229
:101180003F924F925F926F927F928F929F92AF9217
:10119000BF92CF92DF92EF92FF920F931F93CF9364
:1011A000DF93CDB7DEB7CA1BDB0B0FB6F894DEBFFB
:1011B0000FBECDBF09942A88398848885F846E8421
:1011C0007D848C849B84AA84B984C884DF80EE806B
:1011D000FD800C811B81AA81B981CE0FD11D0FB674
:1011E000F894DEBF0FBECDBFED010895F894FFCF98
:1011F00000000000000000000001020203030303DE
:101200000404040404040404050505050505050596
:101210000505050505050505060606060606060676
:10122000060606060606060606060606060606065E
:101230000606060606060606070707070707070746
:10124000070707070707070707070707070707072E
:10125000070707070707070707070707070707071E
:10126000070707070707070707070707070707070E
:1012700007070707070707070808080808080808F6
:1012800008080808080808080808080808080808DE
:1012900008080808080808080808080808080808CE
:1012A00008080808080808080808080808080808BE
:1012B00008080808080808080808080808080808AE
:1012C000080808080808080808080808080808089E
:1012D000080808080808080808080808080808088E
:1012E000080808080808080808080808080808087E
:0812F0000808080808080808B6
:00000001FF
