:03000000020308F0
:0C030800787FE4F6D8FD75811502034FE4
:1001DD00456E7465722070617373776F726400433E
:1001ED006F72726563742050617373776F72640000
:1001FD004F70656E696E6720446F6F7200202055D9
:10020D00722057656C636F6D6500436C6F73696E1B
:10021D006720446F6F7200446F6F7220436C6F7371
:10022D0065640053656375726974792053797374CD
:10023D00656D00412050524F4A454354204F4E00AA
:10024D0050415353574F524420424153454400535C
:10025D00454355524954592053595354454D005512
:10026D0053494E472043415244004D41444520429D
:10027D0059203A2D004E454841202620534F4E49D6
:10028D004100496E73657274204361726400576555
:10029D006C636F6D65207573657220310020577228
:1002AD006F6E672050617373776F72640020454ED7
:1002BD0054455220495420414741494E00202020A9
:1002CD003372642074696D65002053797374656DA4
:1002DD002045786974696E67212121210057656C6D
:1002ED00636F6D6520757365722032002020496E35
:0B02FD0076616C69642043617264004C
:08064D00021004D2021211D7C1
:0B05210012052CC2A0D2A1C2A2C2A3EE
:10052C00E4FDFCEFFBC3ED9B7480F86C985015E474
:10053C00FBFA0BBB00010ABA04F8BBFBF50DBD00BE
:04054C00010C80DF3F
:010550002288
:0D0483001206187F2312063D7F6412052C1F
:10049000C283D284D2852080037F01222081037F02
:1004A00004222082037F0722D283C284D285208047
:1004B000037F02222081037F05222082037F0822FE
:1004C000D283D284C2852080037F03222081037FD0
:0F04D00006222082037F09227F0A12052C80B1A9
:1005F6007F381206187F011206187F061206187F2A
:090606000E1206187F800206188E
:09060F00C2B57F0A12052C7F011F
:100618008F90C2B0C2B1D2B27F0212052CC2B222F0
:0B04DF007F011206187BFF7A0279AA49
:0604EA008B0B8A0C890D4A
:1004F0001206288F0EE4F50FE50FC3950E5021ABC1
:100500000BAA0CA90D1205ADFF12063D7401250DB5
:10051000F50DE4350CF50C7F0A12052C050F80D87B
:0105200022B8
:10063D008F90D2B0C2B1D2B27F0212052CC2B222BB
:100419001205F67BFF7A0179DD1204EA120490AE27
:10042900077FC61204838F097FC71204838F0A7F4F
:10043900C8120483A9077FC91206187F2312063D33
:100449007F0A12052CAF067E007C037DE81205C6E3
:10045900AC06AD07E50975F064A42DFDEC35F0FC9B
:10046900E50A75F00AA42DFFE5F03CFE7C00EF29B2
:09047900F515EC3EF514FEAF157B
:010482002257
:100394001205F67BFF7A0179EC1204EA7F0A120552
:1003A4002C1205F67BFF7A0179FD1204EAC2B4C26D
:1003B400B31205517FC01206187BFF7A02790A1224
:1003C40004EA7F641206137F801206187BFF7A0208
:1003D40079171204EA7F0A12052C1205817F0A128A
:1003E400052C7FC01206187BFF7A0279241204EAD6
:1003F4007F0A12052CD2B412052CC2B312052C129A
:10040400052C7F801206187BFF7A0279301204EAE9
:050414007F0A02052C27
:10055100900000D2A0C2A1C2A2C2A37F0A120521AB
:10056100C2A0C2A1D2A2C2A312052CC2A0C2A1C222
:0F057100A2D2A312052CA3E582641E458370D489
:010580002258
:10058100900000C2A0C2A1C2A2D2A37F0A12052C70
:10059100C2A0C2A1D2A2C2A3120521D2A0C2A1129D
:0B05A1000528A3E582641E458370D886
:0105AC00222C
:1005D8002086062087037F30222086063087037F07
:0E05E80031223086062087037F32227F3322A5
:10000300E4F508C2B3D2B4D2B57F0A12052C7580C9
:10001300071205F67BFF7A0279401204EA7FC012C9
:1000230006187BFF7A02794D1204EA1206117BFF50
:100033007A02795C1204EA7FC21206187BFF7A0205
:10004300796C1204EA1206117BFF7A0279771204A3
:10005300EA7FC21206187BFF7A0279821204EA123F
:1000630006117F801206187BFF7A0279301204EAA8
:100073007F0A12052C1205D8EF24CF6021147003D8
:100083000201281470030201B1240360030201D7A3
:100093007FC01206187BFF7A02798F0201CF7F019E
:1000A3001206187BFF7A02799B1204EA7F0A120573
:1000B3002C120419E515B51108E514B51003020156
:1000C300481204DFC2B5D2B37F0A12052CD2B5059C
:1000D30008E508D3940250127FC01206187BFF7AFA
:1000E3000279BA1204EAC2B380C77F011206187BF1
:1000F300FF7A0279CA1204EA7FC01204E112060FE2
:10010300C2B37BFF7A0279D61204EA7F0A12052C66
:10011300D2B57F011206187F801206187BFF7A0280
:1001230079300201CF7F011206187BFF7A0279EA48
:100133001204EA7F0A12052C120419E515B5130BF4
:10014300E514B512061203940201D71204DFC2B5F7
:10015300D2B37F0A12052CD2B50508E508D3940261
:1001630050127FC01206187BFF7A0279BA1204EA92
:10017300C2B380C47F011206187BFF7A0279CA12C8
:1001830004EA7FC01204E112060FC2B37BFF7A02B6
:1001930079D61204EA7F0A12052CD2B57F01120622
:1001A300187F801206187BFF7A027930801E7F0148
:1001B3001206187BFF7A0279F91204EA7F641206A9
:1001C300137F801206187BFF7A0279301204EA7FCC
:0A01D3000A12052CE4F5080200787A
:10031400020003E493A3F8E493A34003F68001F2FC
:1003240008DFF48029E493A3F85407240CC8C333EA
:10033400C4540F4420C8834004F456800146F6DFB9
:10034400E4800B010204081020408090064DE47EF6
:10035400019360BCA3FF543F30E509541FFEE493AE
:10036400A360010ECF54C025E060A840B8E493A375
:10037400FAE493A3F8E493A3C8C582C8CAC583CAA0
:10038400F0A3C8C582C8CAC583CADFE9DEE780BE58
:0106550000A4
:1005AD00BB010689828A83E0225002E722BBFE024C
:0905BD00E32289828A83E493227F
:1005C600EF8DF0A4A8F0CF8CF0A428CE8DF0A42E49
:0205D600FE2203
:10062800E4FFFE1205AD600C0FEF70010E09E970D2
:05063800F20A80EF2230
:00000001FF
