:030000000208B142
:0C08B100787FE4F6D8FD75810902089DEF
:10080000E4F508F50912086EC2A0D2A1120872C25E
:10081000A0C2A1D2A2120874C2A0C2A1C2A2D2A335
:100820007F0A1208780509E50970020508C39414C7
:06083000E508940040CF32
:01083600229F
:10083700E4F508F509C2A0C2A1C2A2D2A37F0A1299
:100847000878C2A0C2A1D2A2120874C2A0D2A11273
:10085700087212086E0509E50970020508C39414A9
:06086700E508940040CFFB
:01086D002268
:0A086E00D2A0C2A1C2A2C2A37F0A59
:10087800E4FDFCEFFBC3ED9B7480F86C985015E425
:10088800FBFA0BBB00010ABA04F8BBFBF50DBD006F
:04089800010C80DFF0
:01089C002239
:10089D00D2A4D2A5C2A4D2A5120800D2A4C2A51278
:0408AD00083780F098
:00000001FF
