:030000000211A446
:0C11A400787FE4F6D8FD7581440210AE9F
:1011520054454D503A0050524F4A454354004F4E69
:0D1162000054454D50455241545552450032
:08112A00C2A5D2A67F017E00E0
:10113200E4FDFCC3ED9FEC9E5015E4FBFA0BBB00F3
:0F114200010ABA04F8BBFBF50DBD00010C80E4F7
:01115100227B
:0A11B0008F80C2A412112AC2A622E9
:0A11BA008F80D2A412112AC2A622CF
:0610F8008B378A388939AC
:1010FE00E4F53AF53BAB37AA38A939853B82853AF8
:10110E0083120C4EFF60141211BA053BE53B7002C0
:0B111E00053A7F0A7E0012113280DAD1
:0111290022A3
:10118B007F381211B07F0C1211B07F011211B07F9A
:09119B00061211B07F800211B0B0
:100F4A00E4F522F523FEF535F536F524EF75F00ABA
:100F5A0084FDF522EF75F00A8485F023AF05AD23F1
:100F6A00E52425E02425F8760008A6050524E524CD
:100F7A00B408D9E4F524AC24E41209108F3E8E3D5E
:100F8A008D3C8C3B7F007E007D007C40120E33C07E
:100F9A0004C005C006C007E52425E02425F8E6FCC0
:100FAA0008E6FDE412090BD003D002D001D00012EA
:100FBA000800120944AE07EE2536F536E43535F554
:100FCA00350524E524D3940740AC12118B7BFF7AB4
:100FDA001179521210F8AE35AF367C007D0A120C28
:100FEA007B8F22AE35AF367C007D0A120C7B8D23B7
:100FFA007FC81211B0E5222430FF1211BA7F0612FF
:0A100A0011B0E5232430FF0211BAF3
:10116F00E4FDEDC39FE49E5012E4FCECC394FB74CA
:0B117F0080948450030C80F30D80E787
:01118A002242
:1010AE007590FFD2B6D2B712118B7BFF7A11795899
:1010BE001210F87F057E00121132C2B7121132D211
:1010CE00B712118B7BFF7A1179601210F820B5FDE3
:1010DE00C2B612118B7BFF7A1179631210F88590CC
:0A10EE0021AF21120F4AD2B680C9CB
:10080000EC4D6011E8497017ED33EC3304600DE4F2
:10081000FCFFFEFD22E933E8330470F80209B01250
:10082000097B58046009E4CC248150062850090251
:1008300009BA2840030209B7C0E0EB4A7044B98006
:1008400006D0E0FB0209A6EF4E701CBD8008EBFF4E
:10085000EAFEE9FD80EBE98DF0A4FEE5F00208E98F
:10086000E9CDF9EAFEEBFFEF89F0A4FCE5F0CE89D3
:10087000F0A42EFFE435F0CD89F0A42DFEE435F090
:100880008067EF4E7005BD80D780C3EF8BF0A4ACBE
:10089000F0EE8BF0A42CFCE435F0F8EF8AF0A42CF9
:1008A000E5F038FCE433CB8DF0A42CFCE5F03BF80C
:1008B000EE8AF0A42CFCE5F038F8E433CF89F0A4FC
:1008C0002CFCE5F038CF3400CE89F0A42FFFE5F002
:1008D0003EFEE433C98DF0A42EFEE5F039CD8AF05A
:1008E000A42FFFE5F03EFEE43DFD33D0E0FB5007D2
:1008F0000BBB000F0209BAEC2CFCEF33FFEE33FE0A
:06090000ED33FD02099237
:1009060075F020800E75F010800575F0087D007E6C
:10091600007F003392D530D503120CD0EC33401053
:10092600EF33FFEE33FEED33FDEC33FCD5F0ED2275
:0E093600E5F0247EA2D513CC92E7CDCEFF22B1
:10094400EDD2E7CD33EC3392D524814006E4FFFEAB
:10095400FDFC22FCE4CFCECDCC24E0501174FF800A
:10096400EDC3CC13CCCD13CDCE13CECF13CF0470A7
:07097400F030D5DE020CD0CB
:100E33008F3A8E398D388C37E4FFFE7D807C3FAB53
:100E43003AAA39A938A837120AD77009AF3AAE3986
:100E5300AD38AC3722AF3AAE39AD38AC371209C52D
:100E6300FBAF3EAE3DAD3CAC3B1209C5FFBF010835
:100E7300E4FFFE7D807C3F22EF64046022EB640488
:100E8300601DBB0127E4FFFEFDFCAB3EAA3DA93C70
:100E9300A83B120AD760084006E4FFFEFDFC22745B
:100EA300FFF53EF53DF53CF53B020F41E4F53FF51B
:100EB30040FFFEFDFCAB3AAA39A938A837120AD77E
:100EC300504BAF3EAE3DAD3CAC3B1209448E3F8F21
:100ED30040AC3FAD40EC12090BC8ECC8C9EDC9CA20
:100EE300EECACBEFCBAF3EAE3DAD3CAC3B1209E21D
:100EF300E4FBFAF9F8120AD770A5AF3AAE39AD3868
:100F0300AC37120B508F3A8E398D388C37AF3AAEDF
:100F130039AD38AC37120D32AB3EAA3DA93CA83BE4
:100F230012080012104C8F3E8E3D8D3C8C3BE540E9
:100F330030E00B120B508F3E8E3D8D3C8C3BAF3E11
:070F4300AE3DAD3CAC3B22CA
:10097B00E9D2E7C933E833F892D5EDD2E7CD33ECC2
:07098B0033FC5002B2D5223B
:10099200EC30E7100FBF000C0EBE00080DBD0004C6
:1009A2000BEB6014A2D5EB13FCED92E7FD2274FF72
:1009B200FCFDFEFF22E480F8A2D574FF13FC7D80CB
:0309C200E480EFDF
:1009C500ED33EC33601004700FED547F7005740245
:0A09D50092E0227404220422E422BE
:1009DF000209B0E86480F8E933E83360110460F08D
:1009EF00ED33EC337009E8FCE9FDEAFEEBFF22047E
:1009FF0060DED3EB9FEA9EE99DE8C2E78CF0C2F779
:100A0F0095F0400CE8CCF8E9CDF9EACEFAEBCFFB44
:100A1F0012097B85D0F05804700320D5B3E8047019
:100A2F00075002B2D50209BA92D5EC0460F7E4CCB4
:100A3F00C0E0C398F8603B94186008400DD0E0FB0D
:100A4F00020992E4FBFAC9FC8028E830E406E4C905
:100A5F00FBE4CAFCE830E305E4C9CACBFCE8540761
:100A6F006010F8C3E913F9EA13FAEB13FBEC13FC6C
:100A7F00D8F130F52FC3E49CFCEF9BFFEE9AFEED0F
:100A8F0099FDD0E0FBEF4E4D4C701222DB030209B3
:100A9F00B7EC2CFCEF33FFEE33FEED33FDED30E71B
:100AAF00EB020992EF2BFFEE3AFEED39FDD0E0FBA2
:100ABF0050130BBB00030209BAED13FDEE13FEEF4B
:080ACF0013FFEC13FC02099275
:100AD70074F8CC6480CCC86480C8F58204604FC3C6
:100AE700EB9FF5F0EA9E42F0E99D42F0E89C45F065
:100AF700603C501DE5825FFFE582D313CB5BCBF4EF
:100B07002B5582FB50280ABA002409B90020088017
:100B17001DE5825BFBE582D313CF5FCFF4C3132FB1
:100B27005582FF50090EBE00050DBD00010CC3EB39
:100B37009FF5F0EA9E42F0E99D42F0E89C45F0609F
:090B470007CC4820E701B3EC22C1
:100B5000ED33EC33600A047003BD8004ECB2E7FCB3
:010B60002272
:1010140033DA929E35B16011377FE5FE3921848938
:101024003AAEC3FF3C1D955B3D6358473E75FDF0EA
:101034003F3172183F800000C2D50209BA0209B0DC
:10104400BD80FA50F30209B7ED33EC330460F17B51
:101054003B7AAA79B8783F120800ED33EC3392D585
:10106400247B5011A2D570DB500BED448024045036
:1010740004A2D580CEEFFBEEFAEDF9ECF8120944A8
:10108400EFF582F404FC1209101209E6C0829010F4
:10109400147409120C10ED33CC33D0F092D525F032
:0A10A400A2D57001C313CC13FD2286
:100CFE003E9248DA3ECCCCCD3F2AAAAB4000000053
:100D0E003F8000003F9837F03FB504F33FD744FCD7
:100D1E003E3172173EB172173F0515913EDE5BD91B
:100D2E00D2008002C200EDD2E7F8CD33EC3304706E
:100D3E000BBD800592D50209BA0209B040FBD3144F
:100D4E0060F2F5F07C3FEE7A00C39496C8948B4027
:100D5E00230AC89469C8941A401A0AC89468C89499
:100D6E001F40110AC8945AC89425400805F07A000D
:100D7E00CDC2E7CDC0F08C418D428E438F44EA2325
:100D8E0023C0E0240EF582E4340DF583120CEE122E
:100D9E0009E6ECC0E0EDC0E0EEC0E0EFC0E0120C02
:100DAE00DEA841A942AA43AB441209E2D0E0FBD02F
:100DBE00E0FAD0E0F9D0E0B2E7F8120B648C418D86
:100DCE00428E438F44900CFE7403120C01A841A96D
:100DDE0042AA43AB44120800D0E0600F241AF582F9
:100DEE00E4340DF583120CEE1209E68C418D428E21
:100DFE00438F44D0E0C3947FFDE49400FC12090BB2
:100E0E007B187A727931783F120800A841A942AA5C
:100E1E0043AB441209E630000B7BD97A5B79DE785E
:050E2E003E1208002245
:100B61000209BAEC5D046005E8590470030209B09A
:100B710012097B580460F6EC4860F2EC7004FDFE4B
:100B8100FF22C860DB2481C85009C3986002500667
:100B91000209B79850CAF582E9294B4A7005AB8220
:100BA1000209A675F0007C1A7880C3EF9BEE9AEDDE
:100BB10099400DC3EF9BFFEE9AFEED99FDE842F0DF
:100BC100DC23ACF0D0E0FFD0E0FED0E0FDAB822032
:100BD100E7101BEB60BAEC2CFCEF33FFEE33FEEDBC
:100BE10033FD020992E803F830E705C0F075F00023
:100BF100EF2FFFEE33FEED33FD40B830E7C280AAA0
:100C0100C0E0EFFBEEFAEDF9ECF8120800D0E0F5E8
:100C1100F0EFFBEEFAEDF9ECF8120CDEA3A3A3A3BF
:100C2100E8C0E0E9C0E0EAC0E0EBC0E0C0F01208D3
:100C310000120CEEA3A3A3A31209E6D0F0D0E0FBAF
:0D0C4100D0E0FAD0E0F9D0E0F8D5F0D422F0
:100C4E00BB010CE58229F582E5833AF583E022505B
:100C5E0006E92582F8E622BBFE06E92582F8E222A5
:0D0C6E00E58229F582E5833AF583E49322BF
:100C7B00BC000BBE0029EF8DF084FFADF022E4CC5D
:100C8B00F875F008EF2FFFEE33FEEC33FCEE9DEC26
:100C9B00984005FCEE9DFE0FD5F0E9E4CEFD22ED6C
:100CAB00F8F5F0EE8420D21CFEADF075F008EF2FB6
:100CBB00FFED33FD4007985006D5F0F222C398FDA7
:050CCB000FD5F0EA2244
:0E0CD000C3E49FFFE49EFEE49DFDE49CFC2235
:100CDE00E493FC740193FD740293FE740393FF225C
:100CEE00E493F8740193F9740293FA740393FB225C
:00000001FF
