:030000000201E614
:0C01E600787FE4F6D8FD75811C02022D24
:100305004361722073706163652000617661696C79
:1003150061626C65004E6F2073706163652000C07B
:09032500F9A4B0999282F88090CD
:090382000118010119A4011AC0BF
:1001330078087C007D007BFF7A0379247E007F0AA8
:100143001200DE75121475A88212037612032E7B39
:10015300FF7A0379057F801202B01202A830B04102
:1001630020B0FDE512641460020512E51275F00A71
:1001730084F513E51275F00A8485F01474082513C9
:10018300F8E6F51974082514F8E6F51AE512D39480
:1001930000400E7BFF7A0379057F801202B01202C2
:1001A300A830B1B920B1FDE51260021512E5127550
:1001B300F00A84F513E51275F00A8485F0147408C7
:1001C3002513F8E6F51974082514F8E6F51AE5126F
:1001D300708B7BFF7A03791A7F801202B01202A818
:0301E300020160B6
:0C037600758901758CFFE4F58AD28C2299
:1002D800E4F51BF51C900000AF82AE83E4FCFD7BC7
:1002E800FF7AFFF9F8D312011D4003A380EA051C29
:0C02F800E51C7002051B6401451B70D959
:0103040022D6
:03000B000202727C
:10027200C0E0C0D0E51824FE600E047014C2B2C201
:10028200B3D2B3851AA08009C2B2C2B3D2B2851961
:10029200A00518E518B40303751801758CFF758A5B
:0602A20000D0D0D0E032D4
:10032E007F381203477F0E1203477F011203477F68
:09033E00061203477F8002034709
:100347008F90C2B7C2B6D2B5120003C2B502036717
:100357008F90D2B7C2B6D2B5120003C2B5020367F7
:0802A8007BFF7A0379107FC48B
:1002B0008B158A168917120347AB15AA16A91712B0
:1002C000010460130517E5177002051614F91201F1
:0802D00004FF12035780E22233
:06000300E4FF0FBFFFFC4B
:0100090022D4
:0E036700E4FFFE0FBF00010EBE19F8BF99F5AE
:010375002265
:1001F200020133E493A3F8E493A34003F68001F2EF
:1002020008DFF48029E493A3F85407240CC8C3330D
:10021200C4540F4420C8834004F456800146F6DFDC
:10022200E4800B0102040810204080900382E47EE7
:10023200019360BCA3FF543F30E509541FFEE493D1
:10024200A360010ECF54C025E060A840B8E493A398
:10025200FAE493A3F8E493A3C8C582C8CAC583CAC3
:10026200F0A3C8C582C8CAC583CADFE9DEE780BE7B
:01038B000071
:10000E00E709F608DFFA8046E709F208DFFA803ED4
:10001E0088828C83E709F0A3DFFA8032E309F608C1
:10002E00DFFA8078E309F208DFFA807088828C8329
:10003E00E309F0A3DFFA806489828A83E0A3F608DD
:10004E00DFFA805889828A83E0A3F208DFFA804CB7
:10005E0080D280FA80C680D4806980F2803380108E
:10006E0080A680EA809A80A880DA80E280CA8033F7
:10007E0089828A83ECFAE493A3C8C582C8CCC5836F
:10008E00CCF0A3C8C582C8CCC583CCDFE9DEE7803F
:10009E000D89828A83E493A3F608DFF9ECFAA9F0BE
:1000AE00EDFB2289828A83ECFAE0A3C8C582C8CC14
:1000BE00C583CCF0A3C8C582C8CCC583CCDFEADE2D
:1000CE00E880DB89828A83E493A3F208DFF980CC8F
:1000DE0088F0EF60010E4E60C388F0ED2402B40488
:1000EE000050B9F582EB2402B4040050AF2323452F
:0600FE00822390005E73F6
:10010400BB010689828A83E0225002E722BBFE02F9
:09011400E32289828A83E493222C
:10011D00EB9FF5F0EA9E42F0E99D42F0EC6480C859
:06012D0064809845F022F9
:00000001FF
