:100000000C942A000C9447000C9447000C94470071
:100010000C9447000C9447000C9447000C94470044
:100020000C9447000C9447000C9447000C94470034
:100030000C9447000C9447000C9447000C94470024
:100040000C9447000C9447000C9447000C94470014
:100050000C94470011241FBECFE5D4E0DEBFCDBF16
:1000600010E0A0E6B0E0EEECF0E002C005900D92EA
:10007000A036B107D9F710E0A0E6B0E001C01D92AC
:10008000A036B107E1F70E9449000C9465000C947A
:10009000000081B3876081BB18B8379891E080B7C2
:1000A000886080BF17B8459B02C0909A01C09098A5
:1000B00097B9459B02C0919A01C0919810BE459B8B
:0E00C00002C0929AECCF9298EACFF894FFCF4C
:00000001FF
