:030000000209D121
:0C09D100787FE4F6D8FD75810C02080068
:1009740057454C434F4D45000909434554504100E8
:0B0984004B45592053454E534544009D
:080920008F90C2B4D2B57F052F
:10092800E4FDFCEFFBC3ED9B7480F86C985015E474
:10093800FBFA0BBB00010ABA04F8BBFBF50DBD00BE
:04094800010C80DF3F
:01094C002288
:10088B00C2A5D2A6D2A720A0037F312220A1037F2D
:10089B00342220A2037F372220A3037F2A22D2A552
:1008AB00C2A6D2A720A0037F322220A1037F35222C
:1008BB0020A2037F382220A3037F3022D2A5D2A609
:1008CB00C2A720A0037F332220A1037F362220A2C0
:1008DB00037F392220A3037F23227F327E0012095C
:0308EB0054809D99
:07094D001209E57F0A7E009C
:10095400E4FDFCC3ED9FEC9E5015E4FBFA0BBB00D9
:0F096400010ABA01F8BB45F50DBD00010C80E496
:010973002261
:0608EE008B088A09890A4B
:1008F4001209A88F0BE4F50CE50CC3950B501CAB47
:1009040008AA09A90A12098FFF1209E57401250A28
:0B091400F50AE43509F509050C80DD4B
:01091F0022B5
:0809DD00C2B3120920C2B522C9
:0809E500D2B3120920C2B522B1
:1009BD007F381209DD7F0E1209DD7F061209DD7FFA
:0409CD00800209DDBE
:100800001209BD7BFF7A0979741208EE7FC51209BF
:10081000DD7BFF7A09797C1208EE7F011209DD7B0E
:10082000FF7A0979841208EE7FC51209DD12088B60
:10083000EFB40A0050CD90083DF828287302085BF9
:1008400002085F02086302086702086B02086F0271
:10085000087302087702087B0208837F30801E7FBE
:1008600031801A7F3280167F3380127F34800E7F72
:1008700035800A7F3680067F3780027F3812094D27
:0B0880000208037F3912094D02080333
:10098F00BB010689828A83E0225002E722BBFE0266
:09099F00E32289828A83E4932299
:1009A800E4FFFE12098F600C0FEF70010E09E97069
:0509B800F20A80EF22AD
:00000001FF
