:03000000020BB43C
:0C0BB400787FE4F6D8FD75811702080078
:100AB7004B45592053454E534544004B455920312A
:100AC700004B45592032004B45592033004B4559BF
:100AD7002034004B45592035004B45592036004BF3
:100AE70045592037004B45592038004B4559203987
:0B0AF70000C0F9A4B0999282F8809032
:060B37008F80D2A77F05AC
:100B3D00E4FDFCEFFBC3ED9B7480F86C985015E45D
:100B4D00FBFA0BBB00010ABA04F8BBFBF50DBD00A7
:040B5D00010C80DF28
:010B61002271
:100A6A00C2A3D2A4D2A520A0037F012220A1037F82
:100A7A00042220A2037F0722D2A3C2A4D2A520A0C7
:100A8A00037F022220A1037F052220A2037F0822DE
:100A9A00D2A3D2A4C2A520A0037F032220A1037F50
:0D0AAA00062220A2037F0922120B6280B3F6
:040B62007F327E0060
:100B6600E4FDFCC3ED9FEC9E5015E4FBFA0BBB00C5
:0F0B7600010ABA01F8BB45F50DBD00010C80E482
:010B8500224D
:060B02008B138A14891513
:100B0800120B9F8F16E4F517E517C39516501FAB08
:100B180013AA14A915120A51FF120BC8740125153E
:0E0B2800F515E43514F514120B62051780DA8A
:010B3600229C
:080BC000C2A6120B37C2A722E6
:080BC800D2A6120B37C2A722CE
:100B86007F38120BC07F0E120BC07F01120BC07F85
:090B960006120BC07F80020BC0A7
:1008000078097C007D007BFF7A0A79F87E007F0AF8
:10081000120A2B120B8675A0077F80120BC07BFF7C
:100820007A0A79B7120B02120A6A8F08E50814B423
:10083000090050E590084275F003A4C58325F0C572
:10084000837302085D0208790208950208B1020864
:10085000CC0208E702090202091D02093C7FC51209
:100860000BC074092508F8E6F5B07BFF7A0A79C257
:10087000120B027590FE0209367FC5120BC0740977
:100880002508F8E6F5B07BFF7A0A79C8120B0275E5
:1008900090FD0209367FC5120BC074092508F8E6E1
:1008A000F5B07BFF7A0A79CE120B027590FC020933
:1008B000367FC5120BC074092508F8E6F5B07BFF3A
:1008C0007A0A79D4120B027590FB806A7FC5120BED
:1008D000C074092508F8E6F5B07BFF7A0A79DA12C8
:1008E0000B027590FA804F7FC5120BC07409250862
:1008F000F8E6F5B07BFF7A0A79E0120B027590F901
:1009000080347FC5120BC074092508F8E6F5B07B6A
:10091000FF7A0A79E6120B027590F880197FC512EA
:100920000BC074092508F8E6F5B07BFF7A0A79EC6C
:10093000120B027590F7120B620208197FC5120B99
:10094000C074092508F8E6F5B07BFF7A0A79F2123F
:0B0950000B027590F6120B62020819F2
:10095B00E709F608DFFA8046E709F208DFFA803E7E
:10096B0088828C83E709F0A3DFFA8032E309F6086B
:10097B00DFFA8078E309F208DFFA807088828C83D3
:10098B00E309F0A3DFFA806489828A83E0A3F60887
:10099B00DFFA805889828A83E0A3F208DFFA804C61
:1009AB0080D280FA80C680D4806980F28033801038
:1009BB0080A680EA809A80A880DA80E280CA8033A1
:1009CB0089828A83ECFAE493A3C8C582C8CCC58319
:1009DB00CCF0A3C8C582C8CCC583CCDFE9DEE780E9
:1009EB000D89828A83E493A3F608DFF9ECFAA9F068
:1009FB00EDFB2289828A83ECFAE0A3C8C582C8CCBE
:100A0B00C583CCF0A3C8C582C8CCC583CCDFEADED6
:100A1B00E880DB89828A83E493A3F208DFF980CC38
:100A2B0088F0EF60010E4E60C388F0ED2402B40431
:100A3B000050B9F582EB2402B4040050AF232345D8
:060A4B0082239009AB7349
:100A5100BB010689828A83E0225002E722BBFE02A3
:090A6100E32289828A83E49322D6
:100B9F00E4FFFE120A51600C0FEF70010E09E970AD
:050BAF00F20A80EF22B4
:00000001FF
