:030000000208B142
:0C08B100787FE4F6D8FD7581200208F87D
:10097E0054454D503A004D4F44452031004D4F44A3
:10098E00452032004D4F44452033004D4F44452005
:09099E0034004D4F4445203500A2
:020ABA00C10079
:100A3E00750FA0D2AFD2A9D28C7589021209A77FE9
:100A4E0082120A987BFF7A09797E1209F6120A1B26
:020A5E0080FB1B
:03000B00020A6086
:090A6000C0E0C0D075D000C00751
:0F0A6900D28CE4FF308DFDC28D0FBF0AF7C28C17
:070A7800D007D0D0D0E0321E
:100A1B007F017E001209D3C2B27F017E001209D37F
:100A2B00D2B220B3FDC2B1AF90EF25E0FF12093D6A
:020A3B00D2B136
:010A3D002296
:02093D008F0821
:10093F00E50875F00A84FFE50875F00A8485F0096B
:10094F00EF75F00A8485F00A7F88120A98E50A2469
:10095F0030FF120AA9E5092430FF120AA97F60129D
:0F096F000AA97F43120AA91209CFAF0802080094
:100800008F0BE50BD394195019C283D284D285D2B1
:1008100086750FFA7FC4120A987BFF7A09798402E1
:1008200008AAE50BD39419401FE50BD3941E50186A
:10083000D283C284D285D286750FBE7FC4120A9835
:100840007BFF7A09798B8062E50BD3941E401FE50C
:100850000BD394235018D283D284C285D286750FCD
:10086000827FC4120A987BFF7A097992803CE50B5B
:10087000D39423401FE50BD394285018D283D284FD
:10088000D285C286750F467FC4120A987BFF7A090B
:1008900079998016C283C284C285C286750F0A7F89
:1008A000C4120A987BFF7A0979A01209F61209CFBF
:0108B0002225
:1009A7001209CF7F0E120A981209CF7F38120A98C0
:1009B7001209CF7F06120A981209CF7F01120A98EF
:0809C7001209CF7F80020A989B
:100A9800D2B6C2B5C2B48FA0C2B67F027E00020928
:010AA800D37A
:100AA900D2B6C2B5D2B48FA0C2B67F027E00020907
:010AB900D369
:1009F6008B0C8A0D890EAB0CAA0DA90E120A7F600C
:100A060013050EE50E7002050D14F9120A7FFF128A
:050A16000AA980E222A4
:0409CF007F0A7E001D
:1009D300EF1FAA0670011ED39400EA94004013E4AB
:1009E300FCFDC3ED94F4EC940150E50DBD00010C46
:0209F30080F092
:0109F50022DF
:1008BD00020A3EE493A3F8E493A34003F68001F209
:1008CD0008DFF48029E493A3F85407240CC8C3333C
:1008DD00C4540F4420C8834004F456800146F6DF0B
:1008ED00E4800B0102040810204080900ABAE47ED7
:1008FD00019360BCA3FF543F30E509541FFEE49300
:10090D00A360010ECF54C025E060A840B8E493A3C6
:10091D00FAE493A3F8E493A3C8C582C8CAC583CAF1
:10092D00F0A3C8C582C8CAC583CADFE9DEE780BEA9
:010ABC000039
:100A7F00BB010689828A83E0225002E722BBFE0275
:090A8F00E32289828A83E49322A8
:00000001FF
