:03000000020C3DB2
:0C0C3D00787FE4F6D8FD758120020A6182
:100C070054656D70203A2D200000000000000000A0
:050C17000000000000D8
:060B8400D2B17FC87E0023
:100B8A00EF4E60127D7AEDD3940050031D80F7EF8B
:060B9A001F70ED1E80EA51
:010BA0002232
:0A0C49008FA0D2B0120B84C2B122BA
:0A0C53008FA0C2B0120B84C2B122C0
:100C1C007F38120C537F01120C537F0E120C537F32
:040C2C0006020C535D
:100B5F008B0D8A0E890FAB0DAA0EA90F1208F66026
:100B6F0013050FE50F7002050E14F91208F6FF12A8
:050B7F000C4980E22298
:100BD700E4FDFCC3ED9FEE6480F8EC648098500759
:070BE7000DBD00010C80ECC4
:010BEE0022E4
:100BA100C2B57F1D7E00120BD7D2B57F03120BD7C2
:0B0BB100A2B592007F19120BD7A20022
:010BBC002216
:0C0C3000E4FFC2B5D2B50FBF03FCA2B5B3
:010C3C002295
:100BEF00E4F50FC2B5300003D38001C392B57F0582
:070BFF007E00120BD7D2B5F6
:010C060022CB
:100B3100E4FBFA120C30501374017E00A802088005
:100B410005C333CE33CED8F9FF8002EBFFEF42036A
:0D0B51007F067E00120BD70ABA08D8AF034A
:010B5E002274
:020BBD00AB0784
:100BBF00E4FAEB139200120BEFEBC313FB0ABA0824
:080BCF00F17F057E00020BD747
:100AE000780D7C007D007BFF7A0C79107E007F0200
:100AF0001208D0120BA17FCC120BBD7F44120BBD8C
:100B0000120B31EFF460F97FF47E01120B8A120BA5
:100B1000A17FCC120BBD7FBE120BBDE4F9120B31CD
:100B2000740D29F8A60709B909F37B007A00790D3D
:010B300022A2
:0409D9008E0D8F0EE2
:1009DD00780F7C007D007BFF7A0C79127E007F0AF8
:1009ED001208D0E4FBFAE50E450D70077F30120CAE
:1009FD00498040D3E50E9400E50D6480948040332A
:100A0D00AE0DAF0E7C007D0A12094EED2430FFE4D1
:100A1D003CFEEB25E0240FF8A60608A607AE0DAFA9
:100A2D000E7C007D0A12094E8E0D8F0E0BBB000140
:100A3D000A80C0EB1B70011AC3EA648094804013D6
:100A4D00EB25E0240FF808E6FF120C49EB1B70E8CC
:030A5D001A80E517
:010A60002273
:100A6100E4F50C120C1C7F80120C53120AE08B0966
:100A71008A0A890BE92401F9E43AFA1208F65407C3
:100A810012093CAB09AA0AA90B1208F6C4540FF5C6
:100A910008E92401F9E43AFA1208F6C454F01209FB
:100AA1003CAB09AA0AA90B90000112090F2508F510
:100AB100087F80120C537BFF7A0C7907120B5F7F42
:100AC10089120C53AF087E001209D97FDF120C493D
:0F0AD100E508C394235004D2B78090C2B7808C3D
:10080000E709F608DFFA8046E709F208DFFA803EDA
:1008100088828C83E709F0A3DFFA8032E309F608C7
:10082000DFFA8078E309F208DFFA807088828C832F
:10083000E309F0A3DFFA806489828A83E0A3F608E3
:10084000DFFA805889828A83E0A3F208DFFA804CBD
:1008500080D280FA80C680D4806980F28033801094
:1008600080A680EA809A80A880DA80E280CA8033FD
:1008700089828A83ECFAE493A3C8C582C8CCC58375
:10088000CCF0A3C8C582C8CCC583CCDFE9DEE78045
:100890000D89828A83E493A3F608DFF9ECFAA9F0C4
:1008A000EDFB2289828A83ECFAE0A3C8C582C8CC1A
:1008B000C583CCF0A3C8C582C8CCC583CCDFEADE33
:1008C000E880DB89828A83E493A3F208DFF980CC95
:1008D00088F0EF60010E4E60C388F0ED2402B4048E
:1008E0000050B9F582EB2402B4040050AF23234535
:0608F00082239008507302
:1008F600BB010689828A83E0225002E722BBFE0200
:09090600E32289828A83E4932232
:10090F00BB010CE58229F582E5833AF583E022509D
:10091F0006E92582F8E622BBFE06E92582F8E222E7
:0D092F00E58229F582E5833AF583E4932201
:10093C00BB010689828A83F0225002F722BBFE019A
:02094C00F32294
:10094E00C2D5EC30E709B2D5E4C39DFDE49CFCEEC4
:10095E0030E715B2D5E4C39FFFE49EFE120984C3AF
:10096E00E49DFDE49CFC800312098430D507C3E4AA
:06097E009FFFE49EFE2233
:10098400BC000BBE0029EF8DF084FFADF022E4CC57
:10099400F875F008EF2FFFEE33FEEC33FCEE9DEC20
:1009A400984005FCEE9DFE0FD5F0E9E4CEFD22ED66
:1009B400F8F5F0EE8420D21CFEADF075F008EF2FB0
:1009C400FFED33FD4007985006D5F0F222C398FDA1
:0509D4000FD5F0EA223E
:00000001FF
