:100000000C942A000C9447000C9447000C94470071
:100010000C9447000C9447000C9447000C94470044
:100020000C9447000C9447000C9447000C94470034
:100030000C9447000C9447000C9447000C94470024
:100040000C9447000C9447000C9447000C94470014
:100050000C94470011241FBECFE5D4E0DEBFCDBF16
:1000600010E0A0E6B0E0ECECF0E002C005900D92EC
:10007000A036B107D9F710E0A0E6B0E001C01D92AC
:10008000A036B107E1F70E9449000C9464000C947B
:10009000000087B3806A87BB84B3836084BB8DB163
:1000A00081658DB927E09FE6A89AA9982FB9779B1B
:1000B000FECF8FB18BBBA99AA8986E9A9FB9779BF8
:0C00C000FECF8FB18BBBF0CFF894FFCFC8
:00000001FF
