:100000000C942A000C9447000C9447000C94470071
:100010000C9447000C9447000C9447000C94470044
:100020000C9447000C9447000C9447000C94470034
:100030000C9447000C9447000C9447000C94470024
:100040000C9447000C9447000C9447000C94470014
:100050000C94470011241FBECFE5D4E0DEBFCDBF16
:1000600010E0A0E6B0E0E4EBF0E002C005900D92F5
:10007000A036B107D9F710E0A0E6B0E001C01D92AC
:10008000A036B107E1F70E9449000C9458000C9487
:10009000000087B3806B87BBBE988FEF8ABB8DB1A2
:1000A00081658DB91FB8779BFECF8FB18BBBFFCF1A
:0400B000F894FFCFF2
:00000001FF
