:03000000020800F3
:0C080000787FE4F6D8FD758114020847EB
:0C08EF000A08C0F9A4B0999282F8809029
:10088C00C291C290E4F513E4F512D29174082512CA
:10089C00F8E6F5A07F321208CCD29074082513F834
:1008AC00E6F5A07F051208CCC290C2910512E512A4
:1008BC00C3940A40D50513E513C3940A40C980C4F8
:1008CC00E4FDFCEFFBC3ED9BEC94005015E4FBFA4C
:1008DC000BBB00010ABA04F8BBFBF50DBD00010C03
:0208EC0080E1A9
:0108EE0022E7
:10080C0002088CE493A3F8E493A34003F68001F26E
:10081C0008DFF48029E493A3F85407240CC8C333ED
:10082C00C4540F4420C8834004F456800146F6DFBC
:10083C00E4800B01020408102040809008EFE47E55
:10084C00019360BCA3FF543F30E509541FFEE493B1
:10085C00A360010ECF54C025E060A840B8E493A378
:10086C00FAE493A3F8E493A3C8C582C8CAC583CAA3
:10087C00F0A3C8C582C8CAC583CADFE9DEE780BE5B
:0108FB0000FC
:00000001FF
