:100000000C942A000C9447000C9447000C94470071
:100010000C9447000C9447000C9447000C94470044
:100020000C9447000C9447000C9447000C94470034
:100030000C9447000C9447000C9447000C94470024
:100040000C9447000C9447000C9447000C94470014
:100050000C94470011241FBECFE5D4E0DEBFCDBF16
:1000600010E0A0E6B0E0EEE3F3E002C005900D92F0
:10007000A83BB107D9F710E0A8EBB0E001C01D9292
:10008000A83BB107E1F70E94F7000C949D010C9486
:1000900000008AB188618AB980B5866880BD83E333
:1000A00089B908955D9BFECF8CB908955F9BFECF03
:1000B0008CB10895CF93DF93EC018881882361F0A0
:1000C00021960E94520087EA91E60197F1F700C05D
:1000D000000089918823A9F7DF91CF91089585BB0E
:1000E000A898A998AA9A83EC99E00197F1F700C023
:1000F0000000AA9883EC99E00197F1F700C0000096
:100100000895CF93C82F807F0E946F008C2F829517
:10011000807F0E946F00CF91089582E00E9481004D
:1001200083EC99E00197F1F700C0000088E20E949B
:10013000810083EC99E00197F1F700C0000081E0B5
:100140000E94810083EC99E00197F1F700C0000064
:1001500086E00E94810083EC99E00197F1F700C0EE
:1001600000008EE00E94810083EC99E00197F1F796
:1001700000C0000080E80E94810083EC99E00197B4
:10018000F1F700C00000089585BBA89AA998AA9A23
:1001900083EC99E00197F1F700C00000AA9883EC86
:1001A00099E00197F1F700C000000895CF93C82FA0
:1001B000807F0E94C4008C2F8295807F0E94C400A3
:1001C000CF910895CF93DF93EC018881882361F06C
:1001D00021960E94D60087EA91E60197F1F700C0C8
:1001E000000089918823A9F7DF91CF9108958EEFC0
:1001F00081BB8FEF84BBB898C09A0E948D000E948B
:10020000490080E80E94810080E690E00E94E200C0
:1002100088E690E00E945A00C2E7D0E008E710E0CC
:100220000F2EF5E8EF2EF0E0FF2EF02D0F2EF0EA66
:10023000CF2EF0E0DF2EF02D0F2EFEEAAF2EF0E0F5
:10024000BF2EF02DB099FECFCE010E945A008FE74D
:100250009AE1A6E081509040A040E1F700C0000084
:100260008FE39DE0A3E081509040A040E1F700C003
:100270000000C8010E945A008FE79AE1A6E0815071
:100280009040A040E1F700C000008FE39DE0A3E0B4
:1002900081509040A040E1F700C00000C7010E94DB
:1002A0005A008FE79AE1A6E081509040A040E1F724
:1002B00000C000008FE39DE0A3E081509040A0408B
:1002C000E1F700C00000C6010E945A008FE79AE1E2
:1002D000A6E081509040A040E1F700C000008FE30D
:1002E0009DE0A3E081509040A040E1F700C00000F5
:1002F0008AE10E9452008FE79AE1A6E08150904087
:10030000A040E1F700C000008FEB97E2A9E0815028
:100310009040A040E1F700C000008FE39DE0A3E023
:1003200081509040A040E1F700C0000080EC0E94A6
:0E0330008100C5010E94E20085CFF894FFCF46
:10033E0057656C636F6D650057656C636F6D650D0A
:10034E000A000A41540D0A000A41542B434D4746F8
:10035E003D310D0A000A41542B434D47533D222B8C
:10036E00393139373230343436393530220D0A00CE
:10037E0048656C6C6F2042726F74686572004D53E5
:08038E00472053454E540000C6
:00000001FF
